{
  "_format": "hh-sol-artifact-1",
  "contractName": "Treasury",
  "sourceName": "contracts/Treasury.sol",
  "abi": [
    {
      "inputs": [],
      "name": "AlreadyAdmin",
      "type": "error"
    },
    {
      "inputs": [],
      "name": "CannotRemoveLastAdmin",
      "type": "error"
    },
    {
      "inputs": [],
      "name": "InsufficientBalance",
      "type": "error"
    },
    {
      "inputs": [],
      "name": "NotAdmin",
      "type": "error"
    },
    {
      "inputs": [],
      "name": "NotAnAdmin",
      "type": "error"
    },
    {
      "inputs": [],
      "name": "NotFactory",
      "type": "error"
    },
    {
      "inputs": [],
      "name": "ReentrancyGuardReentrantCall",
      "type": "error"
    },
    {
      "inputs": [
        {
          "internalType": "address",
          "name": "token",
          "type": "address"
        }
      ],
      "name": "SafeERC20FailedOperation",
      "type": "error"
    },
    {
      "inputs": [],
      "name": "ZeroAddress",
      "type": "error"
    },
    {
      "inputs": [],
      "name": "ZeroAmount",
      "type": "error"
    },
    {
      "anonymous": false,
      "inputs": [
        {
          "indexed": true,
          "internalType": "address",
          "name": "admin",
          "type": "address"
        }
      ],
      "name": "AdminAdded",
      "type": "event"
    },
    {
      "anonymous": false,
      "inputs": [
        {
          "indexed": true,
          "internalType": "address",
          "name": "admin",
          "type": "address"
        }
      ],
      "name": "AdminRemoved",
      "type": "event"
    },
    {
      "anonymous": false,
      "inputs": [
        {
          "indexed": true,
          "internalType": "address",
          "name": "token",
          "type": "address"
        },
        {
          "indexed": true,
          "internalType": "address",
          "name": "from",
          "type": "address"
        },
        {
          "indexed": false,
          "internalType": "uint256",
          "name": "amount",
          "type": "uint256"
        }
      ],
      "name": "Deposited",
      "type": "event"
    },
    {
      "anonymous": false,
      "inputs": [
        {
          "indexed": true,
          "internalType": "address",
          "name": "from",
          "type": "address"
        },
        {
          "indexed": false,
          "internalType": "uint256",
          "name": "amount",
          "type": "uint256"
        }
      ],
      "name": "NativeReceived",
      "type": "event"
    },
    {
      "anonymous": false,
      "inputs": [
        {
          "indexed": true,
          "internalType": "address",
          "name": "token",
          "type": "address"
        },
        {
          "indexed": true,
          "internalType": "address",
          "name": "spender",
          "type": "address"
        },
        {
          "indexed": false,
          "internalType": "uint256",
          "name": "amount",
          "type": "uint256"
        }
      ],
      "name": "SpenderApproved",
      "type": "event"
    },
    {
      "anonymous": false,
      "inputs": [
        {
          "indexed": true,
          "internalType": "address",
          "name": "token",
          "type": "address"
        },
        {
          "indexed": true,
          "internalType": "address",
          "name": "to",
          "type": "address"
        },
        {
          "indexed": false,
          "internalType": "uint256",
          "name": "amount",
          "type": "uint256"
        }
      ],
      "name": "Withdrawn",
      "type": "event"
    },
    {
      "inputs": [
        {
          "internalType": "address",
          "name": "_admin",
          "type": "address"
        }
      ],
      "name": "addAdmin",
      "outputs": [],
      "stateMutability": "nonpayable",
      "type": "function"
    },
    {
      "inputs": [],
      "name": "adminCount",
      "outputs": [
        {
          "internalType": "uint256",
          "name": "",
          "type": "uint256"
        }
      ],
      "stateMutability": "view",
      "type": "function"
    },
    {
      "inputs": [
        {
          "internalType": "address",
          "name": "_token",
          "type": "address"
        },
        {
          "internalType": "address",
          "name": "_spender",
          "type": "address"
        },
        {
          "internalType": "uint256",
          "name": "_amount",
          "type": "uint256"
        }
      ],
      "name": "approveSpender",
      "outputs": [],
      "stateMutability": "nonpayable",
      "type": "function"
    },
    {
      "inputs": [
        {
          "internalType": "address",
          "name": "_token",
          "type": "address"
        },
        {
          "internalType": "uint256",
          "name": "_amount",
          "type": "uint256"
        }
      ],
      "name": "deposit",
      "outputs": [],
      "stateMutability": "nonpayable",
      "type": "function"
    },
    {
      "inputs": [],
      "name": "factory",
      "outputs": [
        {
          "internalType": "address",
          "name": "",
          "type": "address"
        }
      ],
      "stateMutability": "view",
      "type": "function"
    },
    {
      "inputs": [
        {
          "internalType": "address[]",
          "name": "_admins",
          "type": "address[]"
        }
      ],
      "name": "initialize",
      "outputs": [],
      "stateMutability": "nonpayable",
      "type": "function"
    },
    {
      "inputs": [
        {
          "internalType": "address",
          "name": "",
          "type": "address"
        }
      ],
      "name": "isAdmin",
      "outputs": [
        {
          "internalType": "bool",
          "name": "",
          "type": "bool"
        }
      ],
      "stateMutability": "view",
      "type": "function"
    },
    {
      "inputs": [
        {
          "internalType": "address",
          "name": "_admin",
          "type": "address"
        }
      ],
      "name": "removeAdmin",
      "outputs": [],
      "stateMutability": "nonpayable",
      "type": "function"
    },
    {
      "inputs": [
        {
          "internalType": "address",
          "name": "_token",
          "type": "address"
        }
      ],
      "name": "tokenBalance",
      "outputs": [
        {
          "internalType": "uint256",
          "name": "",
          "type": "uint256"
        }
      ],
      "stateMutability": "view",
      "type": "function"
    },
    {
      "inputs": [
        {
          "internalType": "address",
          "name": "_token",
          "type": "address"
        },
        {
          "internalType": "address",
          "name": "_to",
          "type": "address"
        },
        {
          "internalType": "uint256",
          "name": "_amount",
          "type": "uint256"
        }
      ],
      "name": "withdraw",
      "outputs": [],
      "stateMutability": "nonpayable",
      "type": "function"
    },
    {
      "stateMutability": "payable",
      "type": "receive"
    }
  ],
  "bytecode": "0x608060405234801561001057600080fd5b50600161002f61002461003b60201b60201c565b61006660201b60201c565b60000181905550610070565b60007f9b779b17422d0df92223018b32b4d1fa46e071723d6817e2486d003becc55f0060001b905090565b6000819050919050565b61170b8061007f6000396000f3fe6080604052600436106100955760003560e01c8063704802751161005957806370480275146101d2578063a224cee7146101fb578063c45a015514610224578063d9caed121461024f578063eedc966a14610278576100ea565b80631785f53c146100ef57806322604de21461011857806324d7806c146101415780632b7832b31461017e57806347e7ef24146101a9576100ea565b366100ea573373ffffffffffffffffffffffffffffffffffffffff167f8ac633e5b094e1150d2a6495df4d0c77f51d293abe99e7733c78870dfbee7660346040516100e09190611343565b60405180910390a2005b600080fd5b3480156100fb57600080fd5b50610116600480360381019061011191906113c6565b6102b5565b005b34801561012457600080fd5b5061013f600480360381019061013a919061141f565b6104a9565b005b34801561014d57600080fd5b50610168600480360381019061016391906113c6565b61065e565b604051610175919061148d565b60405180910390f35b34801561018a57600080fd5b5061019361067e565b6040516101a09190611343565b60405180910390f35b3480156101b557600080fd5b506101d060048036038101906101cb91906114a8565b610684565b005b3480156101de57600080fd5b506101f960048036038101906101f491906113c6565b6107ca565b005b34801561020757600080fd5b50610222600480360381019061021d919061154d565b6109ea565b005b34801561023057600080fd5b50610239610c52565b60405161024691906115a9565b60405180910390f35b34801561025b57600080fd5b506102766004803603810190610271919061141f565b610c78565b005b34801561028457600080fd5b5061029f600480360381019061029a91906113c6565b610f2a565b6040516102ac9190611343565b60405180910390f35b6000803373ffffffffffffffffffffffffffffffffffffffff1673ffffffffffffffffffffffffffffffffffffffff16815260200190815260200160002060009054906101000a900460ff16610337576040517f7bfa4b9f00000000000000000000000000000000000000000000000000000000815260040160405180910390fd5b6000808273ffffffffffffffffffffffffffffffffffffffff1673ffffffffffffffffffffffffffffffffffffffff16815260200190815260200160002060009054906101000a900460ff166103b9576040517f55098f2700000000000000000000000000000000000000000000000000000000815260040160405180910390fd5b60018054116103f4576040517fc13a62ad00000000000000000000000000000000000000000000000000000000815260040160405180910390fd5b60008060008373ffffffffffffffffffffffffffffffffffffffff1673ffffffffffffffffffffffffffffffffffffffff16815260200190815260200160002060006101000a81548160ff0219169083151502179055506001600081548092919061045e906115f3565b91905055508073ffffffffffffffffffffffffffffffffffffffff167fa3b62bc36326052d97ea62d63c3d60308ed4c3ea8ac079dd8499f1e9c4f80c0f60405160405180910390a250565b6000803373ffffffffffffffffffffffffffffffffffffffff1673ffffffffffffffffffffffffffffffffffffffff16815260200190815260200160002060009054906101000a900460ff1661052b576040517f7bfa4b9f00000000000000000000000000000000000000000000000000000000815260040160405180910390fd5b600073ffffffffffffffffffffffffffffffffffffffff168373ffffffffffffffffffffffffffffffffffffffff1614806105925750600073ffffffffffffffffffffffffffffffffffffffff168273ffffffffffffffffffffffffffffffffffffffff16145b156105c9576040517fd92e233d00000000000000000000000000000000000000000000000000000000815260040160405180910390fd5b6105f482828573ffffffffffffffffffffffffffffffffffffffff16610fad9092919063ffffffff16565b8173ffffffffffffffffffffffffffffffffffffffff168373ffffffffffffffffffffffffffffffffffffffff167fabc89e42df62ff61951e416d384324f5b56de21d7da8ca3bba4f9b16b3699a9b836040516106519190611343565b60405180910390a3505050565b60006020528060005260406000206000915054906101000a900460ff1681565b60015481565b61068c611061565b600073ffffffffffffffffffffffffffffffffffffffff168273ffffffffffffffffffffffffffffffffffffffff16036106f2576040517fd92e233d00000000000000000000000000000000000000000000000000000000815260040160405180910390fd5b6000810361072c576040517f1f2a200500000000000000000000000000000000000000000000000000000000815260040160405180910390fd5b6107593330838573ffffffffffffffffffffffffffffffffffffffff16611084909392919063ffffffff16565b3373ffffffffffffffffffffffffffffffffffffffff168273ffffffffffffffffffffffffffffffffffffffff167f8752a472e571a816aea92eec8dae9baf628e840f4929fbcc2d155e6233ff68a7836040516107b69190611343565b60405180910390a36107c66110d9565b5050565b6000803373ffffffffffffffffffffffffffffffffffffffff1673ffffffffffffffffffffffffffffffffffffffff16815260200190815260200160002060009054906101000a900460ff1661084c576040517f7bfa4b9f00000000000000000000000000000000000000000000000000000000815260040160405180910390fd5b600073ffffffffffffffffffffffffffffffffffffffff168173ffffffffffffffffffffffffffffffffffffffff16036108b2576040517fd92e233d00000000000000000000000000000000000000000000000000000000815260040160405180910390fd5b6000808273ffffffffffffffffffffffffffffffffffffffff1673ffffffffffffffffffffffffffffffffffffffff16815260200190815260200160002060009054906101000a900460ff1615610935576040517f386d034a00000000000000000000000000000000000000000000000000000000815260040160405180910390fd5b60016000808373ffffffffffffffffffffffffffffffffffffffff1673ffffffffffffffffffffffffffffffffffffffff16815260200190815260200160002060006101000a81548160ff0219169083151502179055506001600081548092919061099f9061161c565b91905055508073ffffffffffffffffffffffffffffffffffffffff167f44d6d25963f097ad14f29f06854a01f575648a1ef82f30e562ccd3889717e33960405160405180910390a250565b600073ffffffffffffffffffffffffffffffffffffffff16600260009054906101000a900473ffffffffffffffffffffffffffffffffffffffff1673ffffffffffffffffffffffffffffffffffffffff1614610a72576040517f32cc723600000000000000000000000000000000000000000000000000000000815260040160405180910390fd5b33600260006101000a81548173ffffffffffffffffffffffffffffffffffffffff021916908373ffffffffffffffffffffffffffffffffffffffff16021790555060005b82829050811015610c4357600073ffffffffffffffffffffffffffffffffffffffff16838383818110610aec57610aeb611664565b5b9050602002016020810190610b0191906113c6565b73ffffffffffffffffffffffffffffffffffffffff1603610b4e576040517fd92e233d00000000000000000000000000000000000000000000000000000000815260040160405180910390fd5b6001600080858585818110610b6657610b65611664565b5b9050602002016020810190610b7b91906113c6565b73ffffffffffffffffffffffffffffffffffffffff1673ffffffffffffffffffffffffffffffffffffffff16815260200190815260200160002060006101000a81548160ff021916908315150217905550828282818110610bdf57610bde611664565b5b9050602002016020810190610bf491906113c6565b73ffffffffffffffffffffffffffffffffffffffff167f44d6d25963f097ad14f29f06854a01f575648a1ef82f30e562ccd3889717e33960405160405180910390a28080600101915050610ab6565b50818190506001819055505050565b600260009054906101000a900473ffffffffffffffffffffffffffffffffffffffff1681565b6000803373ffffffffffffffffffffffffffffffffffffffff1673ffffffffffffffffffffffffffffffffffffffff16815260200190815260200160002060009054906101000a900460ff16610cfa576040517f7bfa4b9f00000000000000000000000000000000000000000000000000000000815260040160405180910390fd5b610d02611061565b600073ffffffffffffffffffffffffffffffffffffffff168373ffffffffffffffffffffffffffffffffffffffff161480610d695750600073ffffffffffffffffffffffffffffffffffffffff168273ffffffffffffffffffffffffffffffffffffffff16145b15610da0576040517fd92e233d00000000000000000000000000000000000000000000000000000000815260040160405180910390fd5b60008103610dda576040517f1f2a200500000000000000000000000000000000000000000000000000000000815260040160405180910390fd5b808373ffffffffffffffffffffffffffffffffffffffff166370a08231306040518263ffffffff1660e01b8152600401610e1491906115a9565b602060405180830381865afa158015610e31573d6000803e3d6000fd5b505050506040513d601f19601f82011682018060405250810190610e5591906116a8565b1015610e8d576040517ff4d678b800000000000000000000000000000000000000000000000000000000815260040160405180910390fd5b610eb882828573ffffffffffffffffffffffffffffffffffffffff166110f49092919063ffffffff16565b8173ffffffffffffffffffffffffffffffffffffffff168373ffffffffffffffffffffffffffffffffffffffff167fd1c19fbcd4551a5edfb66d43d2e337c04837afda3482b42bdf569a8fccdae5fb83604051610f159190611343565b60405180910390a3610f256110d9565b505050565b60008173ffffffffffffffffffffffffffffffffffffffff166370a08231306040518263ffffffff1660e01b8152600401610f6591906115a9565b602060405180830381865afa158015610f82573d6000803e3d6000fd5b505050506040513d601f19601f82011682018060405250810190610fa691906116a8565b9050919050565b610fba8383836000611147565b61105c57610fcc838360006001611147565b61100d57826040517f5274afe700000000000000000000000000000000000000000000000000000000815260040161100491906115a9565b60405180910390fd5b61101a8383836001611147565b61105b57826040517f5274afe700000000000000000000000000000000000000000000000000000000815260040161105291906115a9565b60405180910390fd5b5b505050565b6110696111b1565b600261107b6110766111f2565b61121d565b60000181905550565b611092848484846001611227565b6110d357836040517f5274afe70000000000000000000000000000000000000000000000000000000081526004016110ca91906115a9565b60405180910390fd5b50505050565b60016110eb6110e66111f2565b61121d565b60000181905550565b61110183838360016112a2565b61114257826040517f5274afe700000000000000000000000000000000000000000000000000000000815260040161113991906115a9565b60405180910390fd5b505050565b60008063095ea7b360e01b90506040518160005260001960601c8616600452846024526020600060446000808b5af1925060016000511483166111a3578383151615611196573d6000823e3d81fd5b6000873b113d1516831692505b806040525050949350505050565b6111b961130c565b156111f0576040517f3ee5aeb500000000000000000000000000000000000000000000000000000000815260040160405180910390fd5b565b60007f9b779b17422d0df92223018b32b4d1fa46e071723d6817e2486d003becc55f0060001b905090565b6000819050919050565b6000806323b872dd60e01b90506040518160005260001960601c871660045260001960601c8616602452846044526020600060646000808c5af19250600160005114831661128e578383151615611281573d6000823e3d81fd5b6000883b113d1516831692505b806040526000606052505095945050505050565b60008063a9059cbb60e01b90506040518160005260001960601c8616600452846024526020600060446000808b5af1925060016000511483166112fe5783831516156112f1573d6000823e3d81fd5b6000873b113d1516831692505b806040525050949350505050565b6000600261132061131b6111f2565b61121d565b6000015414905090565b6000819050919050565b61133d8161132a565b82525050565b60006020820190506113586000830184611334565b92915050565b600080fd5b600080fd5b600073ffffffffffffffffffffffffffffffffffffffff82169050919050565b600061139382611368565b9050919050565b6113a381611388565b81146113ae57600080fd5b50565b6000813590506113c08161139a565b92915050565b6000602082840312156113dc576113db61135e565b5b60006113ea848285016113b1565b91505092915050565b6113fc8161132a565b811461140757600080fd5b50565b600081359050611419816113f3565b92915050565b6000806000606084860312156114385761143761135e565b5b6000611446868287016113b1565b9350506020611457868287016113b1565b92505060406114688682870161140a565b9150509250925092565b60008115159050919050565b61148781611472565b82525050565b60006020820190506114a2600083018461147e565b92915050565b600080604083850312156114bf576114be61135e565b5b60006114cd858286016113b1565b92505060206114de8582860161140a565b9150509250929050565b600080fd5b600080fd5b600080fd5b60008083601f84011261150d5761150c6114e8565b5b8235905067ffffffffffffffff81111561152a576115296114ed565b5b602083019150836020820283011115611546576115456114f2565b5b9250929050565b600080602083850312156115645761156361135e565b5b600083013567ffffffffffffffff81111561158257611581611363565b5b61158e858286016114f7565b92509250509250929050565b6115a381611388565b82525050565b60006020820190506115be600083018461159a565b92915050565b7f4e487b7100000000000000000000000000000000000000000000000000000000600052601160045260246000fd5b60006115fe8261132a565b915060008203611611576116106115c4565b5b600182039050919050565b60006116278261132a565b91507fffffffffffffffffffffffffffffffffffffffffffffffffffffffffffffffff8203611659576116586115c4565b5b600182019050919050565b7f4e487b7100000000000000000000000000000000000000000000000000000000600052603260045260246000fd5b6000815190506116a2816113f3565b92915050565b6000602082840312156116be576116bd61135e565b5b60006116cc84828501611693565b9150509291505056fea26469706673582212200b0d37e48eb2b5a4ae5e15f0bf22858f0ebafcd18d894854f553595bff20fd9a64736f6c63430008180033",
  "linkReferences": {},
  "deployedLinkReferences": {}
}