{
  "_format": "hh-sol-artifact-1",
  "contractName": "EarnVault",
  "sourceName": "contracts/EarnVault.sol",
  "abi": [
    {
      "inputs": [
        {
          "internalType": "address",
          "name": "_usdc",
          "type": "address"
        }
      ],
      "stateMutability": "nonpayable",
      "type": "constructor"
    },
    {
      "inputs": [
        {
          "internalType": "address",
          "name": "spender",
          "type": "address"
        },
        {
          "internalType": "uint256",
          "name": "allowance",
          "type": "uint256"
        },
        {
          "internalType": "uint256",
          "name": "needed",
          "type": "uint256"
        }
      ],
      "name": "ERC20InsufficientAllowance",
      "type": "error"
    },
    {
      "inputs": [
        {
          "internalType": "address",
          "name": "sender",
          "type": "address"
        },
        {
          "internalType": "uint256",
          "name": "balance",
          "type": "uint256"
        },
        {
          "internalType": "uint256",
          "name": "needed",
          "type": "uint256"
        }
      ],
      "name": "ERC20InsufficientBalance",
      "type": "error"
    },
    {
      "inputs": [
        {
          "internalType": "address",
          "name": "approver",
          "type": "address"
        }
      ],
      "name": "ERC20InvalidApprover",
      "type": "error"
    },
    {
      "inputs": [
        {
          "internalType": "address",
          "name": "receiver",
          "type": "address"
        }
      ],
      "name": "ERC20InvalidReceiver",
      "type": "error"
    },
    {
      "inputs": [
        {
          "internalType": "address",
          "name": "sender",
          "type": "address"
        }
      ],
      "name": "ERC20InvalidSender",
      "type": "error"
    },
    {
      "inputs": [
        {
          "internalType": "address",
          "name": "spender",
          "type": "address"
        }
      ],
      "name": "ERC20InvalidSpender",
      "type": "error"
    },
    {
      "inputs": [],
      "name": "ReentrancyGuardReentrantCall",
      "type": "error"
    },
    {
      "inputs": [
        {
          "internalType": "address",
          "name": "token",
          "type": "address"
        }
      ],
      "name": "SafeERC20FailedOperation",
      "type": "error"
    },
    {
      "anonymous": false,
      "inputs": [
        {
          "indexed": true,
          "internalType": "address",
          "name": "owner",
          "type": "address"
        },
        {
          "indexed": true,
          "internalType": "address",
          "name": "spender",
          "type": "address"
        },
        {
          "indexed": false,
          "internalType": "uint256",
          "name": "value",
          "type": "uint256"
        }
      ],
      "name": "Approval",
      "type": "event"
    },
    {
      "anonymous": false,
      "inputs": [
        {
          "indexed": true,
          "internalType": "address",
          "name": "user",
          "type": "address"
        },
        {
          "indexed": false,
          "internalType": "uint256",
          "name": "amount",
          "type": "uint256"
        }
      ],
      "name": "Deposited",
      "type": "event"
    },
    {
      "anonymous": false,
      "inputs": [
        {
          "indexed": true,
          "internalType": "address",
          "name": "from",
          "type": "address"
        },
        {
          "indexed": true,
          "internalType": "address",
          "name": "to",
          "type": "address"
        },
        {
          "indexed": false,
          "internalType": "uint256",
          "name": "value",
          "type": "uint256"
        }
      ],
      "name": "Transfer",
      "type": "event"
    },
    {
      "anonymous": false,
      "inputs": [
        {
          "indexed": true,
          "internalType": "address",
          "name": "user",
          "type": "address"
        },
        {
          "indexed": false,
          "internalType": "uint256",
          "name": "amount",
          "type": "uint256"
        }
      ],
      "name": "Withdrawn",
      "type": "event"
    },
    {
      "inputs": [
        {
          "internalType": "address",
          "name": "owner",
          "type": "address"
        },
        {
          "internalType": "address",
          "name": "spender",
          "type": "address"
        }
      ],
      "name": "allowance",
      "outputs": [
        {
          "internalType": "uint256",
          "name": "",
          "type": "uint256"
        }
      ],
      "stateMutability": "view",
      "type": "function"
    },
    {
      "inputs": [
        {
          "internalType": "address",
          "name": "spender",
          "type": "address"
        },
        {
          "internalType": "uint256",
          "name": "value",
          "type": "uint256"
        }
      ],
      "name": "approve",
      "outputs": [
        {
          "internalType": "bool",
          "name": "",
          "type": "bool"
        }
      ],
      "stateMutability": "nonpayable",
      "type": "function"
    },
    {
      "inputs": [
        {
          "internalType": "address",
          "name": "account",
          "type": "address"
        }
      ],
      "name": "balanceOf",
      "outputs": [
        {
          "internalType": "uint256",
          "name": "",
          "type": "uint256"
        }
      ],
      "stateMutability": "view",
      "type": "function"
    },
    {
      "inputs": [],
      "name": "decimals",
      "outputs": [
        {
          "internalType": "uint8",
          "name": "",
          "type": "uint8"
        }
      ],
      "stateMutability": "pure",
      "type": "function"
    },
    {
      "inputs": [
        {
          "internalType": "uint256",
          "name": "amount",
          "type": "uint256"
        }
      ],
      "name": "deposit",
      "outputs": [],
      "stateMutability": "nonpayable",
      "type": "function"
    },
    {
      "inputs": [],
      "name": "name",
      "outputs": [
        {
          "internalType": "string",
          "name": "",
          "type": "string"
        }
      ],
      "stateMutability": "view",
      "type": "function"
    },
    {
      "inputs": [],
      "name": "symbol",
      "outputs": [
        {
          "internalType": "string",
          "name": "",
          "type": "string"
        }
      ],
      "stateMutability": "view",
      "type": "function"
    },
    {
      "inputs": [],
      "name": "totalDeposits",
      "outputs": [
        {
          "internalType": "uint256",
          "name": "",
          "type": "uint256"
        }
      ],
      "stateMutability": "view",
      "type": "function"
    },
    {
      "inputs": [],
      "name": "totalSupply",
      "outputs": [
        {
          "internalType": "uint256",
          "name": "",
          "type": "uint256"
        }
      ],
      "stateMutability": "view",
      "type": "function"
    },
    {
      "inputs": [
        {
          "internalType": "address",
          "name": "to",
          "type": "address"
        },
        {
          "internalType": "uint256",
          "name": "value",
          "type": "uint256"
        }
      ],
      "name": "transfer",
      "outputs": [
        {
          "internalType": "bool",
          "name": "",
          "type": "bool"
        }
      ],
      "stateMutability": "nonpayable",
      "type": "function"
    },
    {
      "inputs": [
        {
          "internalType": "address",
          "name": "from",
          "type": "address"
        },
        {
          "internalType": "address",
          "name": "to",
          "type": "address"
        },
        {
          "internalType": "uint256",
          "name": "value",
          "type": "uint256"
        }
      ],
      "name": "transferFrom",
      "outputs": [
        {
          "internalType": "bool",
          "name": "",
          "type": "bool"
        }
      ],
      "stateMutability": "nonpayable",
      "type": "function"
    },
    {
      "inputs": [],
      "name": "usdc",
      "outputs": [
        {
          "internalType": "contract IERC20",
          "name": "",
          "type": "address"
        }
      ],
      "stateMutability": "view",
      "type": "function"
    },
    {
      "inputs": [
        {
          "internalType": "uint256",
          "name": "amount",
          "type": "uint256"
        }
      ],
      "name": "withdraw",
      "outputs": [],
      "stateMutability": "nonpayable",
      "type": "function"
    }
  ],
  "bytecode": "0x60a06040523480156200001157600080fd5b5060405162001db338038062001db383398181016040528101906200003791906200023e565b6040518060400160405280600d81526020017f57617264656e204c5020555344000000000000000000000000000000000000008152506040518060400160405280600581526020017f6c705553440000000000000000000000000000000000000000000000000000008152508160039081620000b49190620004ea565b508060049081620000c69190620004ea565b5050506001620000eb620000df6200019f60201b60201c565b620001ca60201b60201c565b60000181905550600073ffffffffffffffffffffffffffffffffffffffff168173ffffffffffffffffffffffffffffffffffffffff160362000164576040517f08c379a00000000000000000000000000000000000000000000000000000000081526004016200015b9062000632565b60405180910390fd5b8073ffffffffffffffffffffffffffffffffffffffff1660808173ffffffffffffffffffffffffffffffffffffffff16815250505062000654565b60007f9b779b17422d0df92223018b32b4d1fa46e071723d6817e2486d003becc55f0060001b905090565b6000819050919050565b600080fd5b600073ffffffffffffffffffffffffffffffffffffffff82169050919050565b60006200020682620001d9565b9050919050565b6200021881620001f9565b81146200022457600080fd5b50565b60008151905062000238816200020d565b92915050565b600060208284031215620002575762000256620001d4565b5b6000620002678482850162000227565b91505092915050565b600081519050919050565b7f4e487b7100000000000000000000000000000000000000000000000000000000600052604160045260246000fd5b7f4e487b7100000000000000000000000000000000000000000000000000000000600052602260045260246000fd5b60006002820490506001821680620002f257607f821691505b602082108103620003085762000307620002aa565b5b50919050565b60008190508160005260206000209050919050565b60006020601f8301049050919050565b600082821b905092915050565b600060088302620003727fffffffffffffffffffffffffffffffffffffffffffffffffffffffffffffffff8262000333565b6200037e868362000333565b95508019841693508086168417925050509392505050565b6000819050919050565b6000819050919050565b6000620003cb620003c5620003bf8462000396565b620003a0565b62000396565b9050919050565b6000819050919050565b620003e783620003aa565b620003ff620003f682620003d2565b84845462000340565b825550505050565b600090565b6200041662000407565b62000423818484620003dc565b505050565b5b818110156200044b576200043f6000826200040c565b60018101905062000429565b5050565b601f8211156200049a5762000464816200030e565b6200046f8462000323565b810160208510156200047f578190505b620004976200048e8562000323565b83018262000428565b50505b505050565b600082821c905092915050565b6000620004bf600019846008026200049f565b1980831691505092915050565b6000620004da8383620004ac565b9150826002028217905092915050565b620004f58262000270565b67ffffffffffffffff8111156200051157620005106200027b565b5b6200051d8254620002d9565b6200052a8282856200044f565b600060209050601f8311600181146200056257600084156200054d578287015190505b620005598582620004cc565b865550620005c9565b601f19841662000572866200030e565b60005b828110156200059c5784890151825560018201915060208501945060208101905062000575565b86831015620005bc5784890151620005b8601f891682620004ac565b8355505b6001600288020188555050505b505050505050565b600082825260208201905092915050565b7f496e76616c696420555344432061646472657373000000000000000000000000600082015250565b60006200061a601483620005d1565b91506200062782620005e2565b602082019050919050565b600060208201905081810360008301526200064d816200060b565b9050919050565b60805161172e6200068560003960008181610445015281816104ed0152818161055b0152610700015261172e6000f3fe608060405234801561001057600080fd5b50600436106100cf5760003560e01c80633e413bee1161008c57806395d89b411161006657806395d89b4114610216578063a9059cbb14610234578063b6b55f2514610264578063dd62ed3e14610280576100cf565b80633e413bee146101aa57806370a08231146101c85780637d882097146101f8576100cf565b806306fdde03146100d4578063095ea7b3146100f257806318160ddd1461012257806323b872dd146101405780632e1a7d4d14610170578063313ce5671461018c575b600080fd5b6100dc6102b0565b6040516100e991906111c1565b60405180910390f35b61010c6004803603810190610107919061127c565b610342565b60405161011991906112d7565b60405180910390f35b61012a610365565b6040516101379190611301565b60405180910390f35b61015a6004803603810190610155919061131c565b61036f565b60405161016791906112d7565b60405180910390f35b61018a6004803603810190610185919061136f565b61039e565b005b6101946104e2565b6040516101a191906113b8565b60405180910390f35b6101b26104eb565b6040516101bf9190611432565b60405180910390f35b6101e260048036038101906101dd919061144d565b61050f565b6040516101ef9190611301565b60405180910390f35b610200610557565b60405161020d9190611301565b60405180910390f35b61021e6105f8565b60405161022b91906111c1565b60405180910390f35b61024e6004803603810190610249919061127c565b61068a565b60405161025b91906112d7565b60405180910390f35b61027e6004803603810190610279919061136f565b6106ad565b005b61029a6004803603810190610295919061147a565b6107a8565b6040516102a79190611301565b60405180910390f35b6060600380546102bf906114e9565b80601f01602080910402602001604051908101604052809291908181526020018280546102eb906114e9565b80156103385780601f1061030d57610100808354040283529160200191610338565b820191906000526020600020905b81548152906001019060200180831161031b57829003601f168201915b5050505050905090565b60008061034d61082f565b905061035a818585610837565b600191505092915050565b6000600254905090565b60008061037a61082f565b9050610387858285610849565b6103928585856108de565b60019150509392505050565b6103a66109d2565b600081116103e9576040517f08c379a00000000000000000000000000000000000000000000000000000000081526004016103e090611566565b60405180910390fd5b806103f33361050f565b1015610434576040517f08c379a000000000000000000000000000000000000000000000000000000000815260040161042b906115d2565b60405180910390fd5b61043e33826109f5565b61048933827f000000000000000000000000000000000000000000000000000000000000000073ffffffffffffffffffffffffffffffffffffffff16610a779092919063ffffffff16565b3373ffffffffffffffffffffffffffffffffffffffff167f7084f5476618d8e60b11ef0d7d3f06914655adb8793e28ff7f018d4c76d505d5826040516104cf9190611301565b60405180910390a26104df610aca565b50565b60006006905090565b7f000000000000000000000000000000000000000000000000000000000000000081565b60008060008373ffffffffffffffffffffffffffffffffffffffff1673ffffffffffffffffffffffffffffffffffffffff168152602001908152602001600020549050919050565b60007f000000000000000000000000000000000000000000000000000000000000000073ffffffffffffffffffffffffffffffffffffffff166370a08231306040518263ffffffff1660e01b81526004016105b29190611601565b602060405180830381865afa1580156105cf573d6000803e3d6000fd5b505050506040513d601f19601f820116820180604052508101906105f39190611631565b905090565b606060048054610607906114e9565b80601f0160208091040260200160405190810160405280929190818152602001828054610633906114e9565b80156106805780601f1061065557610100808354040283529160200191610680565b820191906000526020600020905b81548152906001019060200180831161066357829003601f168201915b5050505050905090565b60008061069561082f565b90506106a28185856108de565b600191505092915050565b6106b56109d2565b600081116106f8576040517f08c379a00000000000000000000000000000000000000000000000000000000081526004016106ef90611566565b60405180910390fd5b6107453330837f000000000000000000000000000000000000000000000000000000000000000073ffffffffffffffffffffffffffffffffffffffff16610ae5909392919063ffffffff16565b61074f3382610b3a565b3373ffffffffffffffffffffffffffffffffffffffff167f2da466a7b24304f47e87fa2e1e5a81b9831ce54fec19055ce277ca2f39ba42c4826040516107959190611301565b60405180910390a26107a5610aca565b50565b6000600160008473ffffffffffffffffffffffffffffffffffffffff1673ffffffffffffffffffffffffffffffffffffffff16815260200190815260200160002060008373ffffffffffffffffffffffffffffffffffffffff1673ffffffffffffffffffffffffffffffffffffffff16815260200190815260200160002054905092915050565b600033905090565b6108448383836001610bbc565b505050565b600061085584846107a8565b90507fffffffffffffffffffffffffffffffffffffffffffffffffffffffffffffffff8110156108d857818110156108c8578281836040517ffb8f41b20000000000000000000000000000000000000000000000000000000081526004016108bf9392919061165e565b60405180910390fd5b6108d784848484036000610bbc565b5b50505050565b600073ffffffffffffffffffffffffffffffffffffffff168373ffffffffffffffffffffffffffffffffffffffff16036109505760006040517f96c6fd1e0000000000000000000000000000000000000000000000000000000081526004016109479190611601565b60405180910390fd5b600073ffffffffffffffffffffffffffffffffffffffff168273ffffffffffffffffffffffffffffffffffffffff16036109c25760006040517fec442f050000000000000000000000000000000000000000000000000000000081526004016109b99190611601565b60405180910390fd5b6109cd838383610d93565b505050565b6109da610fb8565b60026109ec6109e7610ff9565b611024565b60000181905550565b600073ffffffffffffffffffffffffffffffffffffffff168273ffffffffffffffffffffffffffffffffffffffff1603610a675760006040517f96c6fd1e000000000000000000000000000000000000000000000000000000008152600401610a5e9190611601565b60405180910390fd5b610a7382600083610d93565b5050565b610a84838383600161102e565b610ac557826040517f5274afe7000000000000000000000000000000000000000000000000000000008152600401610abc9190611601565b60405180910390fd5b505050565b6001610adc610ad7610ff9565b611024565b60000181905550565b610af3848484846001611098565b610b3457836040517f5274afe7000000000000000000000000000000000000000000000000000000008152600401610b2b9190611601565b60405180910390fd5b50505050565b600073ffffffffffffffffffffffffffffffffffffffff168273ffffffffffffffffffffffffffffffffffffffff1603610bac5760006040517fec442f05000000000000000000000000000000000000000000000000000000008152600401610ba39190611601565b60405180910390fd5b610bb860008383610d93565b5050565b600073ffffffffffffffffffffffffffffffffffffffff168473ffffffffffffffffffffffffffffffffffffffff1603610c2e5760006040517fe602df05000000000000000000000000000000000000000000000000000000008152600401610c259190611601565b60405180910390fd5b600073ffffffffffffffffffffffffffffffffffffffff168373ffffffffffffffffffffffffffffffffffffffff1603610ca05760006040517f94280d62000000000000000000000000000000000000000000000000000000008152600401610c979190611601565b60405180910390fd5b81600160008673ffffffffffffffffffffffffffffffffffffffff1673ffffffffffffffffffffffffffffffffffffffff16815260200190815260200160002060008573ffffffffffffffffffffffffffffffffffffffff1673ffffffffffffffffffffffffffffffffffffffff168152602001908152602001600020819055508015610d8d578273ffffffffffffffffffffffffffffffffffffffff168473ffffffffffffffffffffffffffffffffffffffff167f8c5be1e5ebec7d5bd14f71427d1e84f3dd0314c0f7b2291e5b200ac8c7c3b92584604051610d849190611301565b60405180910390a35b50505050565b600073ffffffffffffffffffffffffffffffffffffffff168373ffffffffffffffffffffffffffffffffffffffff1603610de5578060026000828254610dd991906116c4565b92505081905550610eb8565b60008060008573ffffffffffffffffffffffffffffffffffffffff1673ffffffffffffffffffffffffffffffffffffffff16815260200190815260200160002054905081811015610e71578381836040517fe450d38c000000000000000000000000000000000000000000000000000000008152600401610e689392919061165e565b60405180910390fd5b8181036000808673ffffffffffffffffffffffffffffffffffffffff1673ffffffffffffffffffffffffffffffffffffffff16815260200190815260200160002081905550505b600073ffffffffffffffffffffffffffffffffffffffff168273ffffffffffffffffffffffffffffffffffffffff1603610f015780600260008282540392505081905550610f4e565b806000808473ffffffffffffffffffffffffffffffffffffffff1673ffffffffffffffffffffffffffffffffffffffff168152602001908152602001600020600082825401925050819055505b8173ffffffffffffffffffffffffffffffffffffffff168373ffffffffffffffffffffffffffffffffffffffff167fddf252ad1be2c89b69c2b068fc378daa952ba7f163c4a11628f55a4df523b3ef83604051610fab9190611301565b60405180910390a3505050565b610fc0611113565b15610ff7576040517f3ee5aeb500000000000000000000000000000000000000000000000000000000815260040160405180910390fd5b565b60007f9b779b17422d0df92223018b32b4d1fa46e071723d6817e2486d003becc55f0060001b905090565b6000819050919050565b60008063a9059cbb60e01b90506040518160005260001960601c8616600452846024526020600060446000808b5af19250600160005114831661108a57838315161561107d573d6000823e3d81fd5b6000873b113d1516831692505b806040525050949350505050565b6000806323b872dd60e01b90506040518160005260001960601c871660045260001960601c8616602452846044526020600060646000808c5af1925060016000511483166110ff5783831516156110f2573d6000823e3d81fd5b6000883b113d1516831692505b806040526000606052505095945050505050565b60006002611127611122610ff9565b611024565b6000015414905090565b600081519050919050565b600082825260208201905092915050565b60005b8381101561116b578082015181840152602081019050611150565b60008484015250505050565b6000601f19601f8301169050919050565b600061119382611131565b61119d818561113c565b93506111ad81856020860161114d565b6111b681611177565b840191505092915050565b600060208201905081810360008301526111db8184611188565b905092915050565b600080fd5b600073ffffffffffffffffffffffffffffffffffffffff82169050919050565b6000611213826111e8565b9050919050565b61122381611208565b811461122e57600080fd5b50565b6000813590506112408161121a565b92915050565b6000819050919050565b61125981611246565b811461126457600080fd5b50565b60008135905061127681611250565b92915050565b60008060408385031215611293576112926111e3565b5b60006112a185828601611231565b92505060206112b285828601611267565b9150509250929050565b60008115159050919050565b6112d1816112bc565b82525050565b60006020820190506112ec60008301846112c8565b92915050565b6112fb81611246565b82525050565b600060208201905061131660008301846112f2565b92915050565b600080600060608486031215611335576113346111e3565b5b600061134386828701611231565b935050602061135486828701611231565b925050604061136586828701611267565b9150509250925092565b600060208284031215611385576113846111e3565b5b600061139384828501611267565b91505092915050565b600060ff82169050919050565b6113b28161139c565b82525050565b60006020820190506113cd60008301846113a9565b92915050565b6000819050919050565b60006113f86113f36113ee846111e8565b6113d3565b6111e8565b9050919050565b600061140a826113dd565b9050919050565b600061141c826113ff565b9050919050565b61142c81611411565b82525050565b60006020820190506114476000830184611423565b92915050565b600060208284031215611463576114626111e3565b5b600061147184828501611231565b91505092915050565b60008060408385031215611491576114906111e3565b5b600061149f85828601611231565b92505060206114b085828601611231565b9150509250929050565b7f4e487b7100000000000000000000000000000000000000000000000000000000600052602260045260246000fd5b6000600282049050600182168061150157607f821691505b602082108103611514576115136114ba565b5b50919050565b7f416d6f756e74206d757374206265203e20300000000000000000000000000000600082015250565b600061155060128361113c565b915061155b8261151a565b602082019050919050565b6000602082019050818103600083015261157f81611543565b9050919050565b7f496e73756666696369656e74206c705553440000000000000000000000000000600082015250565b60006115bc60128361113c565b91506115c782611586565b602082019050919050565b600060208201905081810360008301526115eb816115af565b9050919050565b6115fb81611208565b82525050565b600060208201905061161660008301846115f2565b92915050565b60008151905061162b81611250565b92915050565b600060208284031215611647576116466111e3565b5b60006116558482850161161c565b91505092915050565b600060608201905061167360008301866115f2565b61168060208301856112f2565b61168d60408301846112f2565b949350505050565b7f4e487b7100000000000000000000000000000000000000000000000000000000600052601160045260246000fd5b60006116cf82611246565b91506116da83611246565b92508282019050808211156116f2576116f1611695565b5b9291505056fea2646970667358221220001400c47157a37a39bed62dca8d1f23bcb3feb4f944c3df852478b3deebd66064736f6c63430008180033",
  "linkReferences": {},
  "deployedLinkReferences": {}
}